{
  "contractName": "Services",
  "abi": [
    {
      "inputs": [
        {
          "internalType": "address",
          "name": "verificationContract",
          "type": "address"
        }
      ],
      "stateMutability": "nonpayable",
      "type": "constructor"
    },
    {
      "anonymous": false,
      "inputs": [
        {
          "indexed": true,
          "internalType": "bytes32",
          "name": "serviceId",
          "type": "bytes32"
        },
        {
          "indexed": true,
          "internalType": "address",
          "name": "owner",
          "type": "address"
        },
        {
          "indexed": true,
          "internalType": "address",
          "name": "provider",
          "type": "address"
        },
        {
          "indexed": false,
          "internalType": "string",
          "name": "serviceType",
          "type": "string"
        },
        {
          "indexed": false,
          "internalType": "uint256",
          "name": "price",
          "type": "uint256"
        },
        {
          "indexed": false,
          "internalType": "uint256",
          "name": "qualityScore",
          "type": "uint256"
        }
      ],
      "name": "ServiceAdded",
      "type": "event"
    },
    {
      "inputs": [
        {
          "internalType": "uint256",
          "name": "",
          "type": "uint256"
        }
      ],
      "name": "serviceIds",
      "outputs": [
        {
          "internalType": "bytes32",
          "name": "",
          "type": "bytes32"
        }
      ],
      "stateMutability": "view",
      "type": "function",
      "constant": true
    },
    {
      "inputs": [
        {
          "internalType": "bytes32",
          "name": "",
          "type": "bytes32"
        }
      ],
      "name": "services",
      "outputs": [
        {
          "internalType": "uint256",
          "name": "price",
          "type": "uint256"
        },
        {
          "internalType": "bool",
          "name": "available",
          "type": "bool"
        },
        {
          "internalType": "address",
          "name": "provider",
          "type": "address"
        },
        {
          "internalType": "string",
          "name": "serviceType",
          "type": "string"
        },
        {
          "internalType": "uint256",
          "name": "qualityScore",
          "type": "uint256"
        },
        {
          "internalType": "uint256",
          "name": "timestamp",
          "type": "uint256"
        }
      ],
      "stateMutability": "view",
      "type": "function",
      "constant": true
    },
    {
      "inputs": [],
      "name": "userVerification",
      "outputs": [
        {
          "internalType": "contract IUserVerification",
          "name": "",
          "type": "address"
        }
      ],
      "stateMutability": "view",
      "type": "function",
      "constant": true
    },
    {
      "inputs": [
        {
          "internalType": "uint256",
          "name": "price",
          "type": "uint256"
        },
        {
          "internalType": "bool",
          "name": "available",
          "type": "bool"
        },
        {
          "internalType": "address",
          "name": "provider",
          "type": "address"
        },
        {
          "internalType": "string",
          "name": "serviceType",
          "type": "string"
        },
        {
          "internalType": "uint256",
          "name": "qualityScore",
          "type": "uint256"
        }
      ],
      "name": "addService",
      "outputs": [],
      "stateMutability": "nonpayable",
      "type": "function"
    },
    {
      "inputs": [],
      "name": "getAllServiceIds",
      "outputs": [
        {
          "internalType": "bytes32[]",
          "name": "",
          "type": "bytes32[]"
        }
      ],
      "stateMutability": "view",
      "type": "function",
      "constant": true
    }
  ],
  "bytecode": "0x60a060405234801562000010575f80fd5b5060405162001402380380620014028339818101604052810190620000369190620000d6565b8073ffffffffffffffffffffffffffffffffffffffff1660808173ffffffffffffffffffffffffffffffffffffffff16815250505062000106565b5f80fd5b5f73ffffffffffffffffffffffffffffffffffffffff82169050919050565b5f620000a08262000075565b9050919050565b620000b28162000094565b8114620000bd575f80fd5b50565b5f81519050620000d081620000a7565b92915050565b5f60208284031215620000ee57620000ed62000071565b5b5f620000fd84828501620000c0565b91505092915050565b6080516112d56200012d5f395f818161020101528181610245015261031c01526112d55ff3fe608060405234801561000f575f80fd5b5060043610610055575f3560e01c80630a790eb7146100595780630b125c111461008e57806369d26933146100ac578063c12fa21b146100dc578063f7262afc146100f8575b5f80fd5b610073600480360381019061006e919061075d565b610116565b60405161008596959493929190610883565b60405180910390f35b6100966101ff565b6040516100a39190610944565b60405180910390f35b6100c660048036038101906100c19190610987565b610223565b6040516100d391906109c1565b60405180910390f35b6100f660048036038101906100f19190610a8f565b610243565b005b6101006106cc565b60405161010d9190610bdc565b60405180910390f35b5f602052805f5260405f205f91509050805f015490806001015f9054906101000a900460ff16908060010160019054906101000a900473ffffffffffffffffffffffffffffffffffffffff169080600201805461017290610c29565b80601f016020809104026020016040519081016040528092919081815260200182805461019e90610c29565b80156101e95780601f106101c0576101008083540402835291602001916101e9565b820191905f5260205f20905b8154815290600101906020018083116101cc57829003601f168201915b5050505050908060030154908060040154905086565b7f000000000000000000000000000000000000000000000000000000000000000081565b60018181548110610232575f80fd5b905f5260205f20015f915090505481565b7f000000000000000000000000000000000000000000000000000000000000000073ffffffffffffffffffffffffffffffffffffffff166308fe4b55336040518263ffffffff1660e01b815260040161029c9190610c59565b602060405180830381865afa1580156102b7573d5f803e3d5ffd5b505050506040513d601f19601f820116820180604052508101906102db9190610c86565b61031a576040517f08c379a000000000000000000000000000000000000000000000000000000000815260040161031190610cfb565b60405180910390fd5b7f000000000000000000000000000000000000000000000000000000000000000073ffffffffffffffffffffffffffffffffffffffff166308fe4b55856040518263ffffffff1660e01b81526004016103739190610c59565b602060405180830381865afa15801561038e573d5f803e3d5ffd5b505050506040513d601f19601f820116820180604052508101906103b29190610c86565b6103f1576040517f08c379a00000000000000000000000000000000000000000000000000000000081526004016103e890610d63565b60405180910390fd5b5f8611610433576040517f08c379a000000000000000000000000000000000000000000000000000000000815260040161042a90610dcb565b60405180910390fd5b6064811115610477576040517f08c379a000000000000000000000000000000000000000000000000000000000815260040161046e90610e33565b60405180910390fd5b5f3385858542604051602001610491959493929190610ef2565b6040516020818303038152906040528051906020012090505f805f8381526020019081526020015f2060040154146104fe576040517f08c379a00000000000000000000000000000000000000000000000000000000081526004016104f590610f87565b60405180910390fd5b6040518060c0016040528088815260200187151581526020018673ffffffffffffffffffffffffffffffffffffffff16815260200185858080601f0160208091040260200160405190810160405280939291908181526020018383808284375f81840152601f19601f820116905080830192505050505050508152602001838152602001428152505f808381526020019081526020015f205f820151815f01556020820151816001015f6101000a81548160ff02191690831515021790555060408201518160010160016101000a81548173ffffffffffffffffffffffffffffffffffffffff021916908373ffffffffffffffffffffffffffffffffffffffff16021790555060608201518160020190816106199190611166565b506080820151816003015560a08201518160040155905050600181908060018154018082558091505060019003905f5260205f20015f90919091909150558473ffffffffffffffffffffffffffffffffffffffff163373ffffffffffffffffffffffffffffffffffffffff16827ff8083a807568965560ad360a487b64db6e23d92f466351e2e6476eaef0321e7287878c886040516106bb9493929190611261565b60405180910390a450505050505050565b6060600180548060200260200160405190810160405280929190818152602001828054801561071857602002820191905f5260205f20905b815481526020019060010190808311610704575b5050505050905090565b5f80fd5b5f80fd5b5f819050919050565b61073c8161072a565b8114610746575f80fd5b50565b5f8135905061075781610733565b92915050565b5f6020828403121561077257610771610722565b5b5f61077f84828501610749565b91505092915050565b5f819050919050565b61079a81610788565b82525050565b5f8115159050919050565b6107b4816107a0565b82525050565b5f73ffffffffffffffffffffffffffffffffffffffff82169050919050565b5f6107e3826107ba565b9050919050565b6107f3816107d9565b82525050565b5f81519050919050565b5f82825260208201905092915050565b5f5b83811015610830578082015181840152602081019050610815565b5f8484015250505050565b5f601f19601f8301169050919050565b5f610855826107f9565b61085f8185610803565b935061086f818560208601610813565b6108788161083b565b840191505092915050565b5f60c0820190506108965f830189610791565b6108a360208301886107ab565b6108b060408301876107ea565b81810360608301526108c2818661084b565b90506108d16080830185610791565b6108de60a0830184610791565b979650505050505050565b5f819050919050565b5f61090c610907610902846107ba565b6108e9565b6107ba565b9050919050565b5f61091d826108f2565b9050919050565b5f61092e82610913565b9050919050565b61093e81610924565b82525050565b5f6020820190506109575f830184610935565b92915050565b61096681610788565b8114610970575f80fd5b50565b5f813590506109818161095d565b92915050565b5f6020828403121561099c5761099b610722565b5b5f6109a984828501610973565b91505092915050565b6109bb8161072a565b82525050565b5f6020820190506109d45f8301846109b2565b92915050565b6109e3816107a0565b81146109ed575f80fd5b50565b5f813590506109fe816109da565b92915050565b610a0d816107d9565b8114610a17575f80fd5b50565b5f81359050610a2881610a04565b92915050565b5f80fd5b5f80fd5b5f80fd5b5f8083601f840112610a4f57610a4e610a2e565b5b8235905067ffffffffffffffff811115610a6c57610a6b610a32565b5b602083019150836001820283011115610a8857610a87610a36565b5b9250929050565b5f805f805f8060a08789031215610aa957610aa8610722565b5b5f610ab689828a01610973565b9650506020610ac789828a016109f0565b9550506040610ad889828a01610a1a565b945050606087013567ffffffffffffffff811115610af957610af8610726565b5b610b0589828a01610a3a565b93509350506080610b1889828a01610973565b9150509295509295509295565b5f81519050919050565b5f82825260208201905092915050565b5f819050602082019050919050565b610b578161072a565b82525050565b5f610b688383610b4e565b60208301905092915050565b5f602082019050919050565b5f610b8a82610b25565b610b948185610b2f565b9350610b9f83610b3f565b805f5b83811015610bcf578151610bb68882610b5d565b9750610bc183610b74565b925050600181019050610ba2565b5085935050505092915050565b5f6020820190508181035f830152610bf48184610b80565b905092915050565b7f4e487b71000000000000000000000000000000000000000000000000000000005f52602260045260245ffd5b5f6002820490506001821680610c4057607f821691505b602082108103610c5357610c52610bfc565b5b50919050565b5f602082019050610c6c5f8301846107ea565b92915050565b5f81519050610c80816109da565b92915050565b5f60208284031215610c9b57610c9a610722565b5b5f610ca884828501610c72565b91505092915050565b7f596f7520617265206e6f742076657269666965640000000000000000000000005f82015250565b5f610ce5601483610803565b9150610cf082610cb1565b602082019050919050565b5f6020820190508181035f830152610d1281610cd9565b9050919050565b7f50726f7669646572206e6f7420766572696669656400000000000000000000005f82015250565b5f610d4d601583610803565b9150610d5882610d19565b602082019050919050565b5f6020820190508181035f830152610d7a81610d41565b9050919050565b7f5072696365206d757374206265203e20300000000000000000000000000000005f82015250565b5f610db5601183610803565b9150610dc082610d81565b602082019050919050565b5f6020820190508181035f830152610de281610da9565b9050919050565b7f5175616c69747920302d313030000000000000000000000000000000000000005f82015250565b5f610e1d600d83610803565b9150610e2882610de9565b602082019050919050565b5f6020820190508181035f830152610e4a81610e11565b9050919050565b5f8160601b9050919050565b5f610e6782610e51565b9050919050565b5f610e7882610e5d565b9050919050565b610e90610e8b826107d9565b610e6e565b82525050565b5f81905092915050565b828183375f83830152505050565b5f610eb98385610e96565b9350610ec6838584610ea0565b82840190509392505050565b5f819050919050565b610eec610ee782610788565b610ed2565b82525050565b5f610efd8288610e7f565b601482019150610f0d8287610e7f565b601482019150610f1e828587610eae565b9150610f2a8284610edb565b6020820191508190509695505050505050565b7f5365727669636520616c726561647920657869737473000000000000000000005f82015250565b5f610f71601683610803565b9150610f7c82610f3d565b602082019050919050565b5f6020820190508181035f830152610f9e81610f65565b9050919050565b7f4e487b71000000000000000000000000000000000000000000000000000000005f52604160045260245ffd5b5f819050815f5260205f209050919050565b5f6020601f8301049050919050565b5f82821b905092915050565b5f6008830261102e7fffffffffffffffffffffffffffffffffffffffffffffffffffffffffffffffff82610ff3565b6110388683610ff3565b95508019841693508086168417925050509392505050565b5f61106a61106561106084610788565b6108e9565b610788565b9050919050565b5f819050919050565b61108383611050565b61109761108f82611071565b848454610fff565b825550505050565b5f90565b6110ab61109f565b6110b681848461107a565b505050565b5b818110156110d9576110ce5f826110a3565b6001810190506110bc565b5050565b601f82111561111e576110ef81610fd2565b6110f884610fe4565b81016020851015611107578190505b61111b61111385610fe4565b8301826110bb565b50505b505050565b5f82821c905092915050565b5f61113e5f1984600802611123565b1980831691505092915050565b5f611156838361112f565b9150826002028217905092915050565b61116f826107f9565b67ffffffffffffffff81111561118857611187610fa5565b5b6111928254610c29565b61119d8282856110dd565b5f60209050601f8311600181146111ce575f84156111bc578287015190505b6111c6858261114b565b86555061122d565b601f1984166111dc86610fd2565b5f5b82811015611203578489015182556001820191506020850194506020810190506111de565b86831015611220578489015161121c601f89168261112f565b8355505b6001600288020188555050505b505050505050565b5f6112408385610803565b935061124d838584610ea0565b6112568361083b565b840190509392505050565b5f6060820190508181035f83015261127a818688611235565b90506112896020830185610791565b6112966040830184610791565b9594505050505056fea264697066735822122001c3dad7d8fde9032574f40cadd46b020365132f9511a60f0a9f8a57be0db9be64736f6c63430008140033",
  "immutableReferences": {
    "27": [
      {
        "length": 32,
        "start": 513
      },
      {
        "length": 32,
        "start": 581
      },
      {
        "length": 32,
        "start": 796
      }
    ]
  },
  "source": "// SPDX-License-Identifier: MIT\npragma solidity ^0.8.20;\n\nimport \"./IUserVerification.sol\";\n\ncontract Services {\n    IUserVerification public immutable userVerification;\n\n    struct ServiceInfo {\n        uint256 price;\n        bool available;\n        address provider;\n        string serviceType;\n        uint256 qualityScore;  // 0100\n        uint256 timestamp;\n    }\n\n    // Map each service ID to its info\n    mapping(bytes32 => ServiceInfo) public services;\n    // List of all service IDs\n    bytes32[] public serviceIds;\n\n    event ServiceAdded(\n        bytes32 indexed serviceId,\n        address indexed owner,\n        address indexed provider,\n        string serviceType,\n        uint256 price,\n        uint256 qualityScore\n    );\n\n    constructor(address verificationContract) {\n        userVerification = IUserVerification(verificationContract);\n    }\n\n    /// @notice Add a new service. Caller and `provider` must both be verified.\n    function addService(\n        uint256 price,\n        bool available,\n        address provider,\n        string calldata serviceType,\n        uint256 qualityScore\n    ) external {\n        require(userVerification.VerifiedPerson(msg.sender), \"You are not verified\");\n        require(userVerification.VerifiedPerson(provider), \"Provider not verified\");\n        require(price > 0, \"Price must be > 0\");\n        require(qualityScore <= 100, \"Quality 0-100\");\n\n        bytes32 id = keccak256(\n            abi.encodePacked(msg.sender, provider, serviceType, block.timestamp)\n        );\n        require(services[id].timestamp == 0, \"Service already exists\");\n\n        services[id] = ServiceInfo({\n            price: price,\n            available: available,\n            provider: provider,\n            serviceType: serviceType,\n            qualityScore: qualityScore,\n            timestamp: block.timestamp\n        });\n        serviceIds.push(id);\n\n        emit ServiceAdded(id, msg.sender, provider, serviceType, price, qualityScore);\n    }\n\n    /// @notice Fetch all service IDs\n    function getAllServiceIds() external view returns (bytes32[] memory) {\n        return serviceIds;\n    }\n}\n",
  "sourcePath": "/home/anand/BC/contracts/ServicesAndRequest.sol",
  "compiler": {
    "name": "solc",
    "version": "0.8.20+commit.a1b79de6.Emscripten.clang"
  },
  "schemaVersion": "3.4.16",
  "updatedAt": "2025-05-02T10:54:02.592Z",
  "networkType": "ethereum",
  "devdoc": {
    "kind": "dev",
    "methods": {},
    "version": 1
  },
  "userdoc": {
    "kind": "user",
    "methods": {
      "addService(uint256,bool,address,string,uint256)": {
        "notice": "Add a new service. Caller and `provider` must both be verified."
      },
      "getAllServiceIds()": {
        "notice": "Fetch all service IDs"
      }
    },
    "version": 1
  }
}