{
  "contractName": "UserVerification",
  "abi": [
    {
      "inputs": [
        {
          "internalType": "bytes32[]",
          "name": "proposalNames",
          "type": "bytes32[]"
        }
      ],
      "stateMutability": "nonpayable",
      "type": "constructor"
    },
    {
      "inputs": [],
      "name": "chairperson",
      "outputs": [
        {
          "internalType": "address",
          "name": "",
          "type": "address"
        }
      ],
      "stateMutability": "view",
      "type": "function",
      "constant": true
    },
    {
      "inputs": [
        {
          "internalType": "uint256",
          "name": "",
          "type": "uint256"
        }
      ],
      "name": "proposals",
      "outputs": [
        {
          "internalType": "bytes32",
          "name": "name",
          "type": "bytes32"
        },
        {
          "internalType": "uint256",
          "name": "voteCount",
          "type": "uint256"
        }
      ],
      "stateMutability": "view",
      "type": "function",
      "constant": true
    },
    {
      "inputs": [
        {
          "internalType": "address",
          "name": "",
          "type": "address"
        }
      ],
      "name": "voters",
      "outputs": [
        {
          "internalType": "uint256",
          "name": "weight",
          "type": "uint256"
        },
        {
          "internalType": "bool",
          "name": "voted",
          "type": "bool"
        },
        {
          "internalType": "address",
          "name": "delegate",
          "type": "address"
        },
        {
          "internalType": "uint256",
          "name": "vote",
          "type": "uint256"
        }
      ],
      "stateMutability": "view",
      "type": "function",
      "constant": true
    },
    {
      "inputs": [
        {
          "internalType": "address",
          "name": "user",
          "type": "address"
        }
      ],
      "name": "VerifiedPerson",
      "outputs": [
        {
          "internalType": "bool",
          "name": "",
          "type": "bool"
        }
      ],
      "stateMutability": "view",
      "type": "function",
      "constant": true
    },
    {
      "inputs": [
        {
          "internalType": "address",
          "name": "user",
          "type": "address"
        }
      ],
      "name": "weight",
      "outputs": [
        {
          "internalType": "uint256",
          "name": "",
          "type": "uint256"
        }
      ],
      "stateMutability": "view",
      "type": "function",
      "constant": true
    },
    {
      "inputs": [
        {
          "internalType": "address",
          "name": "voter",
          "type": "address"
        }
      ],
      "name": "grantRights",
      "outputs": [],
      "stateMutability": "nonpayable",
      "type": "function"
    },
    {
      "inputs": [
        {
          "internalType": "address",
          "name": "to",
          "type": "address"
        }
      ],
      "name": "delegate",
      "outputs": [],
      "stateMutability": "nonpayable",
      "type": "function"
    },
    {
      "inputs": [
        {
          "internalType": "uint256",
          "name": "proposalIndex",
          "type": "uint256"
        }
      ],
      "name": "vote",
      "outputs": [],
      "stateMutability": "nonpayable",
      "type": "function"
    },
    {
      "inputs": [],
      "name": "winningProposal",
      "outputs": [
        {
          "internalType": "uint256",
          "name": "winningIndex",
          "type": "uint256"
        }
      ],
      "stateMutability": "view",
      "type": "function",
      "constant": true
    },
    {
      "inputs": [],
      "name": "winnerName",
      "outputs": [
        {
          "internalType": "bytes32",
          "name": "",
          "type": "bytes32"
        }
      ],
      "stateMutability": "view",
      "type": "function",
      "constant": true
    }
  ],
  "bytecode": "0x608060405234801562000010575f80fd5b506040516200153a3803806200153a833981810160405281019062000036919062000326565b335f806101000a81548173ffffffffffffffffffffffffffffffffffffffff021916908373ffffffffffffffffffffffffffffffffffffffff1602179055506001805f805f9054906101000a900473ffffffffffffffffffffffffffffffffffffffff1673ffffffffffffffffffffffffffffffffffffffff1673ffffffffffffffffffffffffffffffffffffffff1681526020019081526020015f205f01819055505f5b815181101562000169576002604051806040016040528084848151811062000108576200010762000375565b5b602002602001015181526020015f815250908060018154018082558091505060019003905f5260205f2090600202015f909190919091505f820151815f015560208201518160010155505080806200016090620003d8565b915050620000db565b505062000424565b5f604051905090565b5f80fd5b5f80fd5b5f80fd5b5f601f19601f8301169050919050565b7f4e487b71000000000000000000000000000000000000000000000000000000005f52604160045260245ffd5b620001ce8262000186565b810181811067ffffffffffffffff82111715620001f057620001ef62000196565b5b80604052505050565b5f6200020462000171565b9050620002128282620001c3565b919050565b5f67ffffffffffffffff82111562000234576200023362000196565b5b602082029050602081019050919050565b5f80fd5b5f819050919050565b6200025d8162000249565b811462000268575f80fd5b50565b5f815190506200027b8162000252565b92915050565b5f62000297620002918462000217565b620001f9565b90508083825260208201905060208402830185811115620002bd57620002bc62000245565b5b835b81811015620002ea5780620002d588826200026b565b845260208401935050602081019050620002bf565b5050509392505050565b5f82601f8301126200030b576200030a62000182565b5b81516200031d84826020860162000281565b91505092915050565b5f602082840312156200033e576200033d6200017a565b5b5f82015167ffffffffffffffff8111156200035e576200035d6200017e565b5b6200036c84828501620002f4565b91505092915050565b7f4e487b71000000000000000000000000000000000000000000000000000000005f52603260045260245ffd5b7f4e487b71000000000000000000000000000000000000000000000000000000005f52601160045260245ffd5b5f819050919050565b5f620003e482620003cf565b91507fffffffffffffffffffffffffffffffffffffffffffffffffffffffffffffffff8203620004195762000418620003a2565b5b600182019050919050565b61110880620004325f395ff3fe608060405234801561000f575f80fd5b506004361061009c575f3560e01c8063609ff1bd11610064578063609ff1bd1461015757806374b5908314610175578063a3ec138d14610191578063e2ba53f0146101c4578063f4396e2a146101e25761009c565b80630121b93f146100a0578063013cf08b146100bc57806308fe4b55146100ed5780632e4176cf1461011d5780635c19a95c1461013b575b5f80fd5b6100ba60048036038101906100b59190610b48565b610212565b005b6100d660048036038101906100d19190610b48565b61034d565b6040516100e4929190610b9a565b60405180910390f35b61010760048036038101906101029190610c1b565b61037c565b6040516101149190610c60565b60405180910390f35b6101256103c6565b6040516101329190610c88565b60405180910390f35b61015560048036038101906101509190610c1b565b6103e9565b005b61015f6107e1565b60405161016c9190610ca1565b60405180910390f35b61018f600480360381019061018a9190610c1b565b61085f565b005b6101ab60048036038101906101a69190610c1b565b610a41565b6040516101bb9493929190610cba565b60405180910390f35b6101cc610a99565b6040516101d99190610cfd565b60405180910390f35b6101fc60048036038101906101f79190610c1b565b610ac9565b6040516102099190610ca1565b60405180910390f35b5f60015f3373ffffffffffffffffffffffffffffffffffffffff1673ffffffffffffffffffffffffffffffffffffffff1681526020019081526020015f2090505f815f015403610297576040517f08c379a000000000000000000000000000000000000000000000000000000000815260040161028e90610d70565b60405180910390fd5b806001015f9054906101000a900460ff16156102e8576040517f08c379a00000000000000000000000000000000000000000000000000000000081526004016102df90610dd8565b60405180910390fd5b6001816001015f6101000a81548160ff021916908315150217905550818160020181905550805f01546002838154811061032557610324610df6565b5b905f5260205f2090600202016001015f8282546103429190610e50565b925050819055505050565b6002818154811061035c575f80fd5b905f5260205f2090600202015f91509050805f0154908060010154905082565b5f6001805f8473ffffffffffffffffffffffffffffffffffffffff1673ffffffffffffffffffffffffffffffffffffffff1681526020019081526020015f205f0154149050919050565b5f8054906101000a900473ffffffffffffffffffffffffffffffffffffffff1681565b5f60015f3373ffffffffffffffffffffffffffffffffffffffff1673ffffffffffffffffffffffffffffffffffffffff1681526020019081526020015f209050806001015f9054906101000a900460ff161561047a576040517f08c379a000000000000000000000000000000000000000000000000000000000815260040161047190610ecd565b60405180910390fd5b3373ffffffffffffffffffffffffffffffffffffffff168273ffffffffffffffffffffffffffffffffffffffff16036104e8576040517f08c379a00000000000000000000000000000000000000000000000000000000081526004016104df90610f35565b60405180910390fd5b5b5f73ffffffffffffffffffffffffffffffffffffffff1660015f8473ffffffffffffffffffffffffffffffffffffffff1673ffffffffffffffffffffffffffffffffffffffff1681526020019081526020015f2060010160019054906101000a900473ffffffffffffffffffffffffffffffffffffffff1673ffffffffffffffffffffffffffffffffffffffff16146106525760015f8373ffffffffffffffffffffffffffffffffffffffff1673ffffffffffffffffffffffffffffffffffffffff1681526020019081526020015f2060010160019054906101000a900473ffffffffffffffffffffffffffffffffffffffff1691503373ffffffffffffffffffffffffffffffffffffffff168273ffffffffffffffffffffffffffffffffffffffff160361064d576040517f08c379a000000000000000000000000000000000000000000000000000000000815260040161064490610f9d565b60405180910390fd5b6104e9565b6001816001015f6101000a81548160ff021916908315150217905550818160010160016101000a81548173ffffffffffffffffffffffffffffffffffffffff021916908373ffffffffffffffffffffffffffffffffffffffff16021790555060015f8373ffffffffffffffffffffffffffffffffffffffff1673ffffffffffffffffffffffffffffffffffffffff1681526020019081526020015f206001015f9054906101000a900460ff161561078457805f0154600260015f8573ffffffffffffffffffffffffffffffffffffffff1673ffffffffffffffffffffffffffffffffffffffff1681526020019081526020015f20600201548154811061075b5761075a610df6565b5b905f5260205f2090600202016001015f8282546107789190610e50565b925050819055506107dd565b805f015460015f8473ffffffffffffffffffffffffffffffffffffffff1673ffffffffffffffffffffffffffffffffffffffff1681526020019081526020015f205f015f8282546107d59190610e50565b925050819055505b5050565b5f805f5b60028054905081101561085a57816002828154811061080757610806610df6565b5b905f5260205f209060020201600101541115610847576002818154811061083157610830610df6565b5b905f5260205f2090600202016001015491508092505b808061085290610fbb565b9150506107e5565b505090565b5f8054906101000a900473ffffffffffffffffffffffffffffffffffffffff1673ffffffffffffffffffffffffffffffffffffffff163373ffffffffffffffffffffffffffffffffffffffff16146108ec576040517f08c379a00000000000000000000000000000000000000000000000000000000081526004016108e39061104c565b60405180910390fd5b60015f8273ffffffffffffffffffffffffffffffffffffffff1673ffffffffffffffffffffffffffffffffffffffff1681526020019081526020015f206001015f9054906101000a900460ff1615610979576040517f08c379a000000000000000000000000000000000000000000000000000000000815260040161097090610dd8565b60405180910390fd5b5f60015f8373ffffffffffffffffffffffffffffffffffffffff1673ffffffffffffffffffffffffffffffffffffffff1681526020019081526020015f205f0154146109fa576040517f08c379a00000000000000000000000000000000000000000000000000000000081526004016109f1906110b4565b60405180910390fd5b6001805f8373ffffffffffffffffffffffffffffffffffffffff1673ffffffffffffffffffffffffffffffffffffffff1681526020019081526020015f205f018190555050565b6001602052805f5260405f205f91509050805f015490806001015f9054906101000a900460ff16908060010160019054906101000a900473ffffffffffffffffffffffffffffffffffffffff16908060020154905084565b5f6002610aa46107e1565b81548110610ab557610ab4610df6565b5b905f5260205f2090600202015f0154905090565b5f60015f8373ffffffffffffffffffffffffffffffffffffffff1673ffffffffffffffffffffffffffffffffffffffff1681526020019081526020015f205f01549050919050565b5f80fd5b5f819050919050565b610b2781610b15565b8114610b31575f80fd5b50565b5f81359050610b4281610b1e565b92915050565b5f60208284031215610b5d57610b5c610b11565b5b5f610b6a84828501610b34565b91505092915050565b5f819050919050565b610b8581610b73565b82525050565b610b9481610b15565b82525050565b5f604082019050610bad5f830185610b7c565b610bba6020830184610b8b565b9392505050565b5f73ffffffffffffffffffffffffffffffffffffffff82169050919050565b5f610bea82610bc1565b9050919050565b610bfa81610be0565b8114610c04575f80fd5b50565b5f81359050610c1581610bf1565b92915050565b5f60208284031215610c3057610c2f610b11565b5b5f610c3d84828501610c07565b91505092915050565b5f8115159050919050565b610c5a81610c46565b82525050565b5f602082019050610c735f830184610c51565b92915050565b610c8281610be0565b82525050565b5f602082019050610c9b5f830184610c79565b92915050565b5f602082019050610cb45f830184610b8b565b92915050565b5f608082019050610ccd5f830187610b8b565b610cda6020830186610c51565b610ce76040830185610c79565b610cf46060830184610b8b565b95945050505050565b5f602082019050610d105f830184610b7c565b92915050565b5f82825260208201905092915050565b7f4e6f20726967687420746f20766f7465000000000000000000000000000000005f82015250565b5f610d5a601083610d16565b9150610d6582610d26565b602082019050919050565b5f6020820190508181035f830152610d8781610d4e565b9050919050565b7f416c726561647920766f746564000000000000000000000000000000000000005f82015250565b5f610dc2600d83610d16565b9150610dcd82610d8e565b602082019050919050565b5f6020820190508181035f830152610def81610db6565b9050919050565b7f4e487b71000000000000000000000000000000000000000000000000000000005f52603260045260245ffd5b7f4e487b71000000000000000000000000000000000000000000000000000000005f52601160045260245ffd5b5f610e5a82610b15565b9150610e6583610b15565b9250828201905080821115610e7d57610e7c610e23565b5b92915050565b7f596f7520616c726561647920766f7465640000000000000000000000000000005f82015250565b5f610eb7601183610d16565b9150610ec282610e83565b602082019050919050565b5f6020820190508181035f830152610ee481610eab565b9050919050565b7f43616e6e6f742073656c662d64656c65676174650000000000000000000000005f82015250565b5f610f1f601483610d16565b9150610f2a82610eeb565b602082019050919050565b5f6020820190508181035f830152610f4c81610f13565b9050919050565b7f4c6f6f7020696e2064656c65676174696f6e00000000000000000000000000005f82015250565b5f610f87601283610d16565b9150610f9282610f53565b602082019050919050565b5f6020820190508181035f830152610fb481610f7b565b9050919050565b5f610fc582610b15565b91507fffffffffffffffffffffffffffffffffffffffffffffffffffffffffffffffff8203610ff757610ff6610e23565b5b600182019050919050565b7f4f6e6c79206368616972706572736f6e000000000000000000000000000000005f82015250565b5f611036601083610d16565b915061104182611002565b602082019050919050565b5f6020820190508181035f8301526110638161102a565b9050919050565b7f416c7265616479206861732072696768747300000000000000000000000000005f82015250565b5f61109e601283610d16565b91506110a98261106a565b602082019050919050565b5f6020820190508181035f8301526110cb81611092565b905091905056fea26469706673582212204d1813ab49248ef103a8484f5714091cc4c3fc41cdeec2c7cdcb6ae9b57ac7d264736f6c63430008140033",
  "immutableReferences": {},
  "source": "// SPDX-License-Identifier: MIT\npragma solidity ^0.8.20;\n\nimport \"./IUserVerification.sol\";\n\ncontract UserVerification is IUserVerification {\n    struct VoterInfo {\n        uint256 weight;\n        bool voted;\n        address delegate;\n        uint256 vote;\n    }\n\n    struct Proposal {\n        bytes32 name;\n        uint256 voteCount;\n    }\n\n    address public override chairperson;\n    mapping(address => VoterInfo) public voters;\n    Proposal[] public proposals;\n\n    constructor(bytes32[] memory proposalNames) {\n        chairperson = msg.sender;\n        // Chairperson gets initial weight = 1\n        voters[chairperson].weight = 1;\n\n        // Populate proposals\n        for (uint i = 0; i < proposalNames.length; i++) {\n            proposals.push(Proposal({\n                name: proposalNames[i],\n                voteCount: 0\n            }));\n        }\n    }\n\n    /// @notice Returns true if user has weight == 1\n    function VerifiedPerson(address user) external view override returns (bool) {\n        return voters[user].weight == 1;\n    }\n\n    function weight(address user) external view override returns (uint256) {\n        return voters[user].weight;\n    }\n\n    /// @notice Give voting/verification rights to `voter`. Only chairperson may call.\n    function grantRights(address voter) external {\n        require(msg.sender == chairperson, \"Only chairperson\");\n        require(!voters[voter].voted, \"Already voted\");\n        require(voters[voter].weight == 0, \"Already has rights\");\n        voters[voter].weight = 1;\n    }\n\n    /// @notice Delegate your vote to `to`\n    function delegate(address to) external {\n        VoterInfo storage sender = voters[msg.sender];\n        require(!sender.voted, \"You already voted\");\n        require(to != msg.sender, \"Cannot self-delegate\");\n\n        // Follow delegation chain\n        while (voters[to].delegate != address(0)) {\n            to = voters[to].delegate;\n            require(to != msg.sender, \"Loop in delegation\");\n        }\n\n        sender.voted = true;\n        sender.delegate = to;\n        if (voters[to].voted) {\n            // If `to` already voted, directly add to that proposal\n            proposals[voters[to].vote].voteCount += sender.weight;\n        } else {\n            // Otherwise add weight to delegate\n            voters[to].weight += sender.weight;\n        }\n    }\n\n    /// @notice Cast your vote to proposal `proposalIndex`\n    function vote(uint proposalIndex) external {\n        VoterInfo storage sender = voters[msg.sender];\n        require(sender.weight != 0, \"No right to vote\");\n        require(!sender.voted, \"Already voted\");\n        sender.voted = true;\n        sender.vote = proposalIndex;\n        proposals[proposalIndex].voteCount += sender.weight;\n    }\n\n    /// @notice Returns winning proposal index\n    function winningProposal() public view returns (uint256 winningIndex) {\n        uint256 highestCount;\n        for (uint i = 0; i < proposals.length; i++) {\n            if (proposals[i].voteCount > highestCount) {\n                highestCount = proposals[i].voteCount;\n                winningIndex = i;\n            }\n        }\n    }\n\n    /// @notice Returns name of the winning proposal\n    function winnerName() external view returns (bytes32) {\n        return proposals[winningProposal()].name;\n    }\n}\n",
  "sourcePath": "/home/anand/BC/contracts/UserVerification.sol",
  "compiler": {
    "name": "solc",
    "version": "0.8.20+commit.a1b79de6.Emscripten.clang"
  },
  "schemaVersion": "3.4.16",
  "updatedAt": "2025-05-02T10:54:40.128Z",
  "networkType": "ethereum",
  "devdoc": {
    "kind": "dev",
    "methods": {},
    "version": 1
  },
  "userdoc": {
    "kind": "user",
    "methods": {
      "VerifiedPerson(address)": {
        "notice": "Returns true if user has weight == 1"
      },
      "delegate(address)": {
        "notice": "Delegate your vote to `to`"
      },
      "grantRights(address)": {
        "notice": "Give voting/verification rights to `voter`. Only chairperson may call."
      },
      "vote(uint256)": {
        "notice": "Cast your vote to proposal `proposalIndex`"
      },
      "winnerName()": {
        "notice": "Returns name of the winning proposal"
      },
      "winningProposal()": {
        "notice": "Returns winning proposal index"
      }
    },
    "version": 1
  }
}