{
  "contractName": "UserRequest",
  "abi": [
    {
      "inputs": [
        {
          "internalType": "address",
          "name": "verificationContract",
          "type": "address"
        }
      ],
      "stateMutability": "nonpayable",
      "type": "constructor"
    },
    {
      "anonymous": false,
      "inputs": [
        {
          "indexed": true,
          "internalType": "address",
          "name": "requester",
          "type": "address"
        },
        {
          "indexed": true,
          "internalType": "address",
          "name": "user",
          "type": "address"
        },
        {
          "indexed": false,
          "internalType": "bool",
          "name": "isVerified",
          "type": "bool"
        },
        {
          "indexed": false,
          "internalType": "uint256",
          "name": "timestamp",
          "type": "uint256"
        }
      ],
      "name": "RequestSubmitted",
      "type": "event"
    },
    {
      "inputs": [
        {
          "internalType": "uint256",
          "name": "",
          "type": "uint256"
        }
      ],
      "name": "counts",
      "outputs": [
        {
          "internalType": "uint256",
          "name": "requestCount",
          "type": "uint256"
        },
        {
          "internalType": "uint256",
          "name": "verifiedCount",
          "type": "uint256"
        },
        {
          "internalType": "uint256",
          "name": "nonVerifiedCount",
          "type": "uint256"
        }
      ],
      "stateMutability": "view",
      "type": "function",
      "constant": true
    },
    {
      "inputs": [
        {
          "internalType": "address",
          "name": "",
          "type": "address"
        }
      ],
      "name": "requestByUser",
      "outputs": [
        {
          "internalType": "address",
          "name": "requester",
          "type": "address"
        },
        {
          "internalType": "address",
          "name": "user",
          "type": "address"
        },
        {
          "internalType": "uint256",
          "name": "weight",
          "type": "uint256"
        },
        {
          "internalType": "bytes32",
          "name": "name",
          "type": "bytes32"
        },
        {
          "internalType": "bytes32",
          "name": "federationId",
          "type": "bytes32"
        },
        {
          "internalType": "uint256",
          "name": "timestamp",
          "type": "uint256"
        },
        {
          "internalType": "bool",
          "name": "isVerified",
          "type": "bool"
        }
      ],
      "stateMutability": "view",
      "type": "function",
      "constant": true
    },
    {
      "inputs": [
        {
          "internalType": "uint256",
          "name": "",
          "type": "uint256"
        }
      ],
      "name": "requests",
      "outputs": [
        {
          "internalType": "address",
          "name": "requester",
          "type": "address"
        },
        {
          "internalType": "address",
          "name": "user",
          "type": "address"
        },
        {
          "internalType": "uint256",
          "name": "weight",
          "type": "uint256"
        },
        {
          "internalType": "bytes32",
          "name": "name",
          "type": "bytes32"
        },
        {
          "internalType": "bytes32",
          "name": "federationId",
          "type": "bytes32"
        },
        {
          "internalType": "uint256",
          "name": "timestamp",
          "type": "uint256"
        },
        {
          "internalType": "bool",
          "name": "isVerified",
          "type": "bool"
        }
      ],
      "stateMutability": "view",
      "type": "function",
      "constant": true
    },
    {
      "inputs": [],
      "name": "userVerification",
      "outputs": [
        {
          "internalType": "contract IUserVerification",
          "name": "",
          "type": "address"
        }
      ],
      "stateMutability": "view",
      "type": "function",
      "constant": true
    },
    {
      "inputs": [
        {
          "internalType": "address",
          "name": "user",
          "type": "address"
        },
        {
          "internalType": "bytes32",
          "name": "name",
          "type": "bytes32"
        },
        {
          "internalType": "bytes32",
          "name": "federationId",
          "type": "bytes32"
        }
      ],
      "name": "submitRequest",
      "outputs": [],
      "stateMutability": "nonpayable",
      "type": "function"
    },
    {
      "inputs": [
        {
          "internalType": "address",
          "name": "user",
          "type": "address"
        }
      ],
      "name": "finalizeRequest",
      "outputs": [],
      "stateMutability": "nonpayable",
      "type": "function"
    }
  ],
  "bytecode": "0x60a060405234801561000f575f80fd5b506040516200105438038062001054833981810160405281019061003391906100cb565b8073ffffffffffffffffffffffffffffffffffffffff1660808173ffffffffffffffffffffffffffffffffffffffff1681525050506100f6565b5f80fd5b5f73ffffffffffffffffffffffffffffffffffffffff82169050919050565b5f61009a82610071565b9050919050565b6100aa81610090565b81146100b4575f80fd5b50565b5f815190506100c5816100a1565b92915050565b5f602082840312156100e0576100df61006d565b5b5f6100ed848285016100b7565b91505092915050565b608051610f296200012b5f395f818161015a0152818161017e0152818161046b0152818161054301526106210152610f295ff3fe608060405234801561000f575f80fd5b5060043610610060575f3560e01c80630b125c11146100645780631d280eb9146100825780631fcf048b1461009e57806381d12c58146100d4578063c1bbcca01461010a578063dc715d1b14610126575b5f80fd5b61006c610158565b6040516100799190610a4b565b60405180910390f35b61009c60048036038101906100979190610aa3565b61017c565b005b6100b860048036038101906100b39190610aa3565b61034b565b6040516100cb9796959493929190610b27565b60405180910390f35b6100ee60048036038101906100e99190610bbe565b6103d3565b6040516101019796959493929190610b27565b60405180910390f35b610124600480360381019061011f9190610c13565b610469565b005b610140600480360381019061013b9190610bbe565b61099c565b60405161014f93929190610c63565b60405180910390f35b7f000000000000000000000000000000000000000000000000000000000000000081565b7f000000000000000000000000000000000000000000000000000000000000000073ffffffffffffffffffffffffffffffffffffffff16632e4176cf6040518163ffffffff1660e01b8152600401602060405180830381865afa1580156101e5573d5f803e3d5ffd5b505050506040513d601f19601f820116820180604052508101906102099190610cac565b73ffffffffffffffffffffffffffffffffffffffff163373ffffffffffffffffffffffffffffffffffffffff1614610276576040517f08c379a000000000000000000000000000000000000000000000000000000000815260040161026d90610d31565b60405180910390fd5b5f60015f8373ffffffffffffffffffffffffffffffffffffffff1673ffffffffffffffffffffffffffffffffffffffff1681526020019081526020015f2090505f73ffffffffffffffffffffffffffffffffffffffff16816001015f9054906101000a900473ffffffffffffffffffffffffffffffffffffffff1673ffffffffffffffffffffffffffffffffffffffff1603610347576040517f08c379a000000000000000000000000000000000000000000000000000000000815260040161033e90610d99565b60405180910390fd5b5050565b6001602052805f5260405f205f91509050805f015f9054906101000a900473ffffffffffffffffffffffffffffffffffffffff1690806001015f9054906101000a900473ffffffffffffffffffffffffffffffffffffffff1690806002015490806003015490806004015490806005015490806006015f9054906101000a900460ff16905087565b5f81815481106103e1575f80fd5b905f5260205f2090600702015f91509050805f015f9054906101000a900473ffffffffffffffffffffffffffffffffffffffff1690806001015f9054906101000a900473ffffffffffffffffffffffffffffffffffffffff1690806002015490806003015490806004015490806005015490806006015f9054906101000a900460ff16905087565b7f000000000000000000000000000000000000000000000000000000000000000073ffffffffffffffffffffffffffffffffffffffff166308fe4b55336040518263ffffffff1660e01b81526004016104c29190610db7565b602060405180830381865afa1580156104dd573d5f803e3d5ffd5b505050506040513d601f19601f820116820180604052508101906105019190610dfa565b610540576040517f08c379a000000000000000000000000000000000000000000000000000000000815260040161053790610e6f565b60405180910390fd5b5f7f000000000000000000000000000000000000000000000000000000000000000073ffffffffffffffffffffffffffffffffffffffff166308fe4b55856040518263ffffffff1660e01b815260040161059a9190610db7565b602060405180830381865afa1580156105b5573d5f803e3d5ffd5b505050506040513d601f19601f820116820180604052508101906105d99190610dfa565b90505f6040518060e001604052803373ffffffffffffffffffffffffffffffffffffffff1681526020018673ffffffffffffffffffffffffffffffffffffffff1681526020017f000000000000000000000000000000000000000000000000000000000000000073ffffffffffffffffffffffffffffffffffffffff1663f4396e2a886040518263ffffffff1660e01b81526004016106789190610db7565b602060405180830381865afa158015610693573d5f803e3d5ffd5b505050506040513d601f19601f820116820180604052508101906106b79190610ea1565b815260200185815260200184815260200142815260200183151581525090505f81908060018154018082558091505060019003905f5260205f2090600702015f909190919091505f820151815f015f6101000a81548173ffffffffffffffffffffffffffffffffffffffff021916908373ffffffffffffffffffffffffffffffffffffffff1602179055506020820151816001015f6101000a81548173ffffffffffffffffffffffffffffffffffffffff021916908373ffffffffffffffffffffffffffffffffffffffff16021790555060408201518160020155606082015181600301556080820151816004015560a0820151816005015560c0820151816006015f6101000a81548160ff02191690831515021790555050508060015f8773ffffffffffffffffffffffffffffffffffffffff1673ffffffffffffffffffffffffffffffffffffffff1681526020019081526020015f205f820151815f015f6101000a81548173ffffffffffffffffffffffffffffffffffffffff021916908373ffffffffffffffffffffffffffffffffffffffff1602179055506020820151816001015f6101000a81548173ffffffffffffffffffffffffffffffffffffffff021916908373ffffffffffffffffffffffffffffffffffffffff16021790555060408201518160020155606082015181600301556080820151816004015560a0820151816005015560c0820151816006015f6101000a81548160ff0219169083151502179055509050505f600260018160018154018082558091505003905f5260205f20906003020190506001815f01819055508215610922576001816001018190555061092d565b600181600201819055505b8573ffffffffffffffffffffffffffffffffffffffff163373ffffffffffffffffffffffffffffffffffffffff167f6ba4d29cb5b5aa65f8ba5db81674f63df57ca29f5c9bb32965804ec06df6ddcf854260405161098c929190610ecc565b60405180910390a3505050505050565b600281815481106109ab575f80fd5b905f5260205f2090600302015f91509050805f0154908060010154908060020154905083565b5f73ffffffffffffffffffffffffffffffffffffffff82169050919050565b5f819050919050565b5f610a13610a0e610a09846109d1565b6109f0565b6109d1565b9050919050565b5f610a24826109f9565b9050919050565b5f610a3582610a1a565b9050919050565b610a4581610a2b565b82525050565b5f602082019050610a5e5f830184610a3c565b92915050565b5f80fd5b5f610a72826109d1565b9050919050565b610a8281610a68565b8114610a8c575f80fd5b50565b5f81359050610a9d81610a79565b92915050565b5f60208284031215610ab857610ab7610a64565b5b5f610ac584828501610a8f565b91505092915050565b610ad781610a68565b82525050565b5f819050919050565b610aef81610add565b82525050565b5f819050919050565b610b0781610af5565b82525050565b5f8115159050919050565b610b2181610b0d565b82525050565b5f60e082019050610b3a5f83018a610ace565b610b476020830189610ace565b610b546040830188610ae6565b610b616060830187610afe565b610b6e6080830186610afe565b610b7b60a0830185610ae6565b610b8860c0830184610b18565b98975050505050505050565b610b9d81610add565b8114610ba7575f80fd5b50565b5f81359050610bb881610b94565b92915050565b5f60208284031215610bd357610bd2610a64565b5b5f610be084828501610baa565b91505092915050565b610bf281610af5565b8114610bfc575f80fd5b50565b5f81359050610c0d81610be9565b92915050565b5f805f60608486031215610c2a57610c29610a64565b5b5f610c3786828701610a8f565b9350506020610c4886828701610bff565b9250506040610c5986828701610bff565b9150509250925092565b5f606082019050610c765f830186610ae6565b610c836020830185610ae6565b610c906040830184610ae6565b949350505050565b5f81519050610ca681610a79565b92915050565b5f60208284031215610cc157610cc0610a64565b5b5f610cce84828501610c98565b91505092915050565b5f82825260208201905092915050565b7f4e6f74206368616972706572736f6e00000000000000000000000000000000005f82015250565b5f610d1b600f83610cd7565b9150610d2682610ce7565b602082019050919050565b5f6020820190508181035f830152610d4881610d0f565b9050919050565b7f4e6f2073756368207265717565737400000000000000000000000000000000005f82015250565b5f610d83600f83610cd7565b9150610d8e82610d4f565b602082019050919050565b5f6020820190508181035f830152610db081610d77565b9050919050565b5f602082019050610dca5f830184610ace565b92915050565b610dd981610b0d565b8114610de3575f80fd5b50565b5f81519050610df481610dd0565b92915050565b5f60208284031215610e0f57610e0e610a64565b5b5f610e1c84828501610de6565b91505092915050565b7f4e6f7420766572696669656400000000000000000000000000000000000000005f82015250565b5f610e59600c83610cd7565b9150610e6482610e25565b602082019050919050565b5f6020820190508181035f830152610e8681610e4d565b9050919050565b5f81519050610e9b81610b94565b92915050565b5f60208284031215610eb657610eb5610a64565b5b5f610ec384828501610e8d565b91505092915050565b5f604082019050610edf5f830185610b18565b610eec6020830184610ae6565b939250505056fea2646970667358221220e288b85a72c0d0e4394bae31f06a7c67818904842a238d1aad7542bb38b1c31064736f6c63430008140033",
  "immutableReferences": {
    "191": [
      {
        "length": 32,
        "start": 346
      },
      {
        "length": 32,
        "start": 382
      },
      {
        "length": 32,
        "start": 1131
      },
      {
        "length": 32,
        "start": 1347
      },
      {
        "length": 32,
        "start": 1569
      }
    ]
  },
  "source": "// SPDX-License-Identifier: MIT\npragma solidity ^0.8.20;\n\nimport \"./IUserVerification.sol\";\n\ncontract UserRequest {\n    IUserVerification public immutable userVerification;\n\n    struct Request {\n        address requester;\n        address user;\n        uint256 weight;\n        bytes32 name;\n        bytes32 federationId;\n        uint256 timestamp;\n        bool isVerified;\n    }\n\n    Request[] public requests;\n    mapping(address => Request) public requestByUser;\n\n    struct VerificationCount {\n        uint256 requestCount;\n        uint256 verifiedCount;\n        uint256 nonVerifiedCount;\n    }\n\n    VerificationCount[] public counts;\n\n    event RequestSubmitted(\n        address indexed requester,\n        address indexed user,\n        bool isVerified,\n        uint256 timestamp\n    );\n\n    modifier onlyChairperson() {\n        require(msg.sender == userVerification.chairperson(), \"Not chairperson\");\n        _;\n    }\n\n    constructor(address verificationContract) {\n        userVerification = IUserVerification(verificationContract);\n    }\n\n    /// @notice Any verified person can submit a request for another user\n    function submitRequest(\n        address user,\n        bytes32 name,\n        bytes32 federationId\n    ) external {\n        require(userVerification.VerifiedPerson(msg.sender), \"Not verified\");\n        bool verified = userVerification.VerifiedPerson(user);\n\n        Request memory req = Request({\n            requester: msg.sender,\n            user: user,\n            weight: userVerification.weight(user),\n            name: name,\n            federationId: federationId,\n            timestamp: block.timestamp,\n            isVerified: verified\n        });\n\n        requests.push(req);\n        requestByUser[user] = req;\n\n        // update counts\n        VerificationCount storage vc = counts.push();\n        vc.requestCount = 1;\n        if (verified) vc.verifiedCount = 1;\n        else vc.nonVerifiedCount = 1;\n\n        emit RequestSubmitted(msg.sender, user, verified, block.timestamp);\n    }\n\n    /// @notice Chairperson can finalize a request (example usage)\n    function finalizeRequest(address user) external onlyChairperson {\n        Request storage req = requestByUser[user];\n        require(req.user != address(0), \"No such request\");\n        // your finalization logic here...\n    }\n}\n",
  "sourcePath": "/home/anand/BC/contracts/UserRequest.sol",
  "compiler": {
    "name": "solc",
    "version": "0.8.20+commit.a1b79de6.Emscripten.clang"
  },
  "schemaVersion": "3.4.16",
  "updatedAt": "2025-05-02T10:54:40.119Z",
  "networkType": "ethereum",
  "devdoc": {
    "kind": "dev",
    "methods": {},
    "version": 1
  },
  "userdoc": {
    "kind": "user",
    "methods": {
      "finalizeRequest(address)": {
        "notice": "Chairperson can finalize a request (example usage)"
      },
      "submitRequest(address,bytes32,bytes32)": {
        "notice": "Any verified person can submit a request for another user"
      }
    },
    "version": 1
  }
}