{
  "contractName": "Voter",
  "abi": [
    {
      "inputs": [
        {
          "internalType": "bytes32[]",
          "name": "proposalnames",
          "type": "bytes32[]"
        }
      ],
      "stateMutability": "nonpayable",
      "type": "constructor"
    },
    {
      "inputs": [
        {
          "internalType": "address",
          "name": "",
          "type": "address"
        }
      ],
      "name": "_Voter",
      "outputs": [
        {
          "internalType": "uint256",
          "name": "weight",
          "type": "uint256"
        },
        {
          "internalType": "bool",
          "name": "voted",
          "type": "bool"
        },
        {
          "internalType": "address",
          "name": "member",
          "type": "address"
        },
        {
          "internalType": "uint256",
          "name": "vote",
          "type": "uint256"
        }
      ],
      "stateMutability": "view",
      "type": "function"
    },
    {
      "inputs": [
        {
          "internalType": "uint256",
          "name": "",
          "type": "uint256"
        }
      ],
      "name": "_proposal",
      "outputs": [
        {
          "internalType": "bytes32",
          "name": "name",
          "type": "bytes32"
        },
        {
          "internalType": "uint256",
          "name": "voteCount",
          "type": "uint256"
        }
      ],
      "stateMutability": "view",
      "type": "function"
    },
    {
      "inputs": [],
      "name": "chairperson",
      "outputs": [
        {
          "internalType": "address",
          "name": "",
          "type": "address"
        }
      ],
      "stateMutability": "view",
      "type": "function"
    },
    {
      "inputs": [
        {
          "internalType": "address",
          "name": "voteraddress",
          "type": "address"
        }
      ],
      "name": "rightsGiven",
      "outputs": [],
      "stateMutability": "nonpayable",
      "type": "function"
    },
    {
      "inputs": [
        {
          "internalType": "uint256",
          "name": "proposal_",
          "type": "uint256"
        }
      ],
      "name": "vote",
      "outputs": [],
      "stateMutability": "nonpayable",
      "type": "function"
    },
    {
      "inputs": [],
      "name": "winningDeligate",
      "outputs": [
        {
          "internalType": "uint256",
          "name": "winingdelegate_",
          "type": "uint256"
        }
      ],
      "stateMutability": "view",
      "type": "function"
    },
    {
      "inputs": [],
      "name": "winnerName",
      "outputs": [
        {
          "internalType": "bytes32",
          "name": "winnername_",
          "type": "bytes32"
        }
      ],
      "stateMutability": "view",
      "type": "function"
    }
  ],
  "bytecode": "0x608060405234801562000010575f80fd5b5060405162000ec738038062000ec7833981810160405281019062000036919062000327565b335f806101000a81548173ffffffffffffffffffffffffffffffffffffffff021916908373ffffffffffffffffffffffffffffffffffffffff160217905550600160025f805f9054906101000a900473ffffffffffffffffffffffffffffffffffffffff1673ffffffffffffffffffffffffffffffffffffffff1673ffffffffffffffffffffffffffffffffffffffff1681526020019081526020015f205f01819055505f5b81518110156200016a576001604051806040016040528084848151811062000109576200010862000376565b5b602002602001015181526020015f815250908060018154018082558091505060019003905f5260205f2090600202015f909190919091505f820151815f015560208201518160010155505080806200016190620003d9565b915050620000dc565b505062000425565b5f604051905090565b5f80fd5b5f80fd5b5f80fd5b5f601f19601f8301169050919050565b7f4e487b71000000000000000000000000000000000000000000000000000000005f52604160045260245ffd5b620001cf8262000187565b810181811067ffffffffffffffff82111715620001f157620001f062000197565b5b80604052505050565b5f6200020562000172565b9050620002138282620001c4565b919050565b5f67ffffffffffffffff82111562000235576200023462000197565b5b602082029050602081019050919050565b5f80fd5b5f819050919050565b6200025e816200024a565b811462000269575f80fd5b50565b5f815190506200027c8162000253565b92915050565b5f62000298620002928462000218565b620001fa565b90508083825260208201905060208402830185811115620002be57620002bd62000246565b5b835b81811015620002eb5780620002d688826200026c565b845260208401935050602081019050620002c0565b5050509392505050565b5f82601f8301126200030c576200030b62000183565b5b81516200031e84826020860162000282565b91505092915050565b5f602082840312156200033f576200033e6200017b565b5b5f82015167ffffffffffffffff8111156200035f576200035e6200017f565b5b6200036d84828501620002f5565b91505092915050565b7f4e487b71000000000000000000000000000000000000000000000000000000005f52603260045260245ffd5b7f4e487b71000000000000000000000000000000000000000000000000000000005f52601160045260245ffd5b5f819050919050565b5f620003e582620003d0565b91507fffffffffffffffffffffffffffffffffffffffffffffffffffffffffffffffff82036200041a5762000419620003a3565b5b600182019050919050565b610a9480620004335f395ff3fe608060405234801561000f575f80fd5b506004361061007b575f3560e01c80637b8a2841116100595780637b8a2841146100d75780638a018661146100f3578063df23914414610126578063e2ba53f0146101575761007b565b80630121b93f1461007f5780632e4176cf1461009b57806374644fa7146100b9575b5f80fd5b61009960048036038101906100949190610625565b610175565b005b6100a36102b0565b6040516100b0919061068f565b60405180910390f35b6100c16102d3565b6040516100ce91906106b7565b60405180910390f35b6100f160048036038101906100ec91906106fa565b610354565b005b61010d600480360381019061010891906106fa565b610537565b60405161011d949392919061073f565b60405180910390f35b610140600480360381019061013b9190610625565b61058f565b60405161014e92919061079a565b60405180910390f35b61015f6105be565b60405161016c91906107c1565b60405180910390f35b5f60025f3373ffffffffffffffffffffffffffffffffffffffff1673ffffffffffffffffffffffffffffffffffffffff1681526020019081526020015f2090505f815f0154036101fa576040517f08c379a00000000000000000000000000000000000000000000000000000000081526004016101f190610834565b60405180910390fd5b806001015f9054906101000a900460ff161561024b576040517f08c379a00000000000000000000000000000000000000000000000000000000081526004016102429061089c565b60405180910390fd5b6001816001015f6101000a81548160ff021916908315150217905550818160020181905550805f015460018381548110610288576102876108ba565b5b905f5260205f2090600202016001015f8282546102a59190610914565b925050819055505050565b5f8054906101000a900473ffffffffffffffffffffffffffffffffffffffff1681565b5f805f90505f5b60018054905081101561034f5781600182815481106102fc576102fb6108ba565b5b905f5260205f20906002020160010154111561033c5760018181548110610326576103256108ba565b5b905f5260205f2090600202016001015491508092505b808061034790610947565b9150506102da565b505090565b5f8054906101000a900473ffffffffffffffffffffffffffffffffffffffff1673ffffffffffffffffffffffffffffffffffffffff163373ffffffffffffffffffffffffffffffffffffffff16146103e1576040517f08c379a00000000000000000000000000000000000000000000000000000000081526004016103d8906109d8565b60405180910390fd5b60025f8273ffffffffffffffffffffffffffffffffffffffff1673ffffffffffffffffffffffffffffffffffffffff1681526020019081526020015f206001015f9054906101000a900460ff161561046e576040517f08c379a00000000000000000000000000000000000000000000000000000000081526004016104659061089c565b60405180910390fd5b5f60025f8373ffffffffffffffffffffffffffffffffffffffff1673ffffffffffffffffffffffffffffffffffffffff1681526020019081526020015f205f0154146104ef576040517f08c379a00000000000000000000000000000000000000000000000000000000081526004016104e690610a40565b60405180910390fd5b600160025f8373ffffffffffffffffffffffffffffffffffffffff1673ffffffffffffffffffffffffffffffffffffffff1681526020019081526020015f205f018190555050565b6002602052805f5260405f205f91509050805f015490806001015f9054906101000a900460ff16908060010160019054906101000a900473ffffffffffffffffffffffffffffffffffffffff16908060020154905084565b6001818154811061059e575f80fd5b905f5260205f2090600202015f91509050805f0154908060010154905082565b5f60016105c96102d3565b815481106105da576105d96108ba565b5b905f5260205f2090600202015f0154905090565b5f80fd5b5f819050919050565b610604816105f2565b811461060e575f80fd5b50565b5f8135905061061f816105fb565b92915050565b5f6020828403121561063a576106396105ee565b5b5f61064784828501610611565b91505092915050565b5f73ffffffffffffffffffffffffffffffffffffffff82169050919050565b5f61067982610650565b9050919050565b6106898161066f565b82525050565b5f6020820190506106a25f830184610680565b92915050565b6106b1816105f2565b82525050565b5f6020820190506106ca5f8301846106a8565b92915050565b6106d98161066f565b81146106e3575f80fd5b50565b5f813590506106f4816106d0565b92915050565b5f6020828403121561070f5761070e6105ee565b5b5f61071c848285016106e6565b91505092915050565b5f8115159050919050565b61073981610725565b82525050565b5f6080820190506107525f8301876106a8565b61075f6020830186610730565b61076c6040830185610680565b61077960608301846106a8565b95945050505050565b5f819050919050565b61079481610782565b82525050565b5f6040820190506107ad5f83018561078b565b6107ba60208301846106a8565b9392505050565b5f6020820190506107d45f83018461078b565b92915050565b5f82825260208201905092915050565b7f596f752068617665206e6f20726967687420746f20766f7465000000000000005f82015250565b5f61081e6019836107da565b9150610829826107ea565b602082019050919050565b5f6020820190508181035f83015261084b81610812565b9050919050565b7f596f75206861766520616c726561647920766f746564000000000000000000005f82015250565b5f6108866016836107da565b915061089182610852565b602082019050919050565b5f6020820190508181035f8301526108b38161087a565b9050919050565b7f4e487b71000000000000000000000000000000000000000000000000000000005f52603260045260245ffd5b7f4e487b71000000000000000000000000000000000000000000000000000000005f52601160045260245ffd5b5f61091e826105f2565b9150610929836105f2565b9250828201905080821115610941576109406108e7565b5b92915050565b5f610951826105f2565b91507fffffffffffffffffffffffffffffffffffffffffffffffffffffffffffffffff8203610983576109826108e7565b5b600182019050919050565b7f4f6e6c79206368616972706572736f6e2063616e2067697665207269676874735f82015250565b5f6109c26020836107da565b91506109cd8261098e565b602082019050919050565b5f6020820190508181035f8301526109ef816109b6565b9050919050565b7f566f74657220616c7265616479206861732077656967687400000000000000005f82015250565b5f610a2a6018836107da565b9150610a35826109f6565b602082019050919050565b5f6020820190508181035f830152610a5781610a1e565b905091905056fea26469706673582212208679acfc6a80fd5356e10404172a113a84ea7d59c881e47712e60d423f63599c64736f6c63430008150033",
  "immutableReferences": {},
  "source": "// SPDX-License-Identifier: MIT\npragma solidity ^0.8.20;\n\ncontract Voter {\n    // Renamed struct to avoid shadowing the contract name.\n    struct VoterInfo {\n        uint256 weight;\n        bool voted;\n        address member;\n        uint256 vote;\n    }\n\n    struct Proposal {\n        bytes32 name;\n        uint256 voteCount;\n    }\n    \n    address public chairperson;\n    Proposal[] public _proposal;\n    mapping (address => VoterInfo) public _Voter;\n\n    // Constructor takes an array of proposal names in bytes32 format.\n    constructor (bytes32[] memory proposalnames) {\n        chairperson = msg.sender;  // Set the chairperson.\n        _Voter[chairperson].weight = 1;\n\n        // Populate the proposals array.\n        for (uint256 i = 0; i < proposalnames.length; i++) {\n            _proposal.push(Proposal({\n                name: proposalnames[i],\n                voteCount: 0\n            }));\n        }\n    }\n\n    // Give rights to vote.\n    function rightsGiven(address voteraddress) public {\n        require(msg.sender == chairperson, \"Only chairperson can give rights\");\n        require(!_Voter[voteraddress].voted, \"You have already voted\");\n        require(_Voter[voteraddress].weight == 0, \"Voter already has weight\");\n        _Voter[voteraddress].weight = 1; // increment it by 1 if the require statement fails \n    }\n\n    // Private function for casting a vote or delegating.\n    function CastVote(address votedTO) private {   //t the function to vote someone else \n        VoterInfo storage sender = _Voter[msg.sender];  // _Voter[msg.sender] i used to asign address to vote \n        require(!sender.voted, \"You have already voted\");  \n        require(votedTO != msg.sender, \"Self voting isn't allowed\"); //  self voting is not allowed \n        \n        // Follow the delegation chain.\n        while (_Voter[votedTO].member != address(0)) {\n            votedTO = _Voter[votedTO].member;\n            require(votedTO != msg.sender, \"Loop delegation is not allowed\");\n        }\n\n        sender.voted = true;\n        sender.member = votedTO;\n        VoterInfo storage member_ = _Voter[votedTO];\n        if (member_.voted) {\n            _proposal[member_.vote].voteCount += sender.weight;\n        } else {\n            member_.weight += sender.weight;\n        }\n    }\n\n    // Public function to cast a vote.\n    function vote(uint proposal_) public {                              // for certain proposals \n        VoterInfo storage sender_ = _Voter[msg.sender];\n        require(sender_.weight != 0, \"You have no right to vote\");\n        require(!sender_.voted, \"You have already voted\");\n\n        sender_.voted = true;\n        sender_.vote = proposal_;\n        _proposal[proposal_].voteCount += sender_.weight;\n    }\n\n    // Function to determine the winning delegate.\n    function winningDeligate() public view returns (uint256 winingdelegate_) {\n        uint256 winningVoteCount = 0;\n        for (uint256 i = 0; i < _proposal.length; i++) {\n            if (_proposal[i].voteCount > winningVoteCount) {\n                winningVoteCount = _proposal[i].voteCount; \n                winingdelegate_ = i;\n            }\n        }\n    }\n\n    // Function to return the winner's name.\n    function winnerName() public view returns (bytes32 winnername_) {\n        winnername_ = _proposal[winningDeligate()].name;\n    }\n}\n",
  "sourcePath": "/home/anand/BC/Public-Contracts/contracts/UserVerification.sol",
  "compiler": {
    "name": "solc",
    "version": "0.8.21+commit.d9974bed.Emscripten.clang"
  },
  "schemaVersion": "3.4.16",
  "updatedAt": "2025-02-23T12:38:36.272Z",
  "devdoc": {
    "kind": "dev",
    "methods": {},
    "version": 1
  },
  "userdoc": {
    "kind": "user",
    "methods": {},
    "version": 1
  }
}